:020000040800F2
:10000000280C0020990200089D12000871100008B9
:1000100099120008B90600086513000800000000E6
:10002000000000000000000000000000A512000811
:10003000BD06000800000000A1120008A912000877
:10004000B3020008B3020008B3020008B3020008BC
:10005000B3020008B3020008C1060008B30200089A
:10006000B3020008C9060008B3020008B302000882
:10007000B3020008B3020008B3020008B30200088C
:10008000B3020008B3020008B30200080000000039
:10009000000000000000000000000000D106000881
:1000A000B3020008B3020008B3020008B30200085C
:1000B000B3020008B3020008B3020008B30200084C
:1000C000B3020008B3020008B3020008B30200083C
:1000D000B3020008B3020008B302000800000000E9
:1000E000B3020008B3020008B302000800000000D9
:1000F000000000000000000000000000B302000843
:1001000000000000B3020008B3020008B3020008B8
:1001100000000000000000000000000000000000DF
:10012000B3020008B3020008B3020008B3020008DB
:10013000B302000800000000000000000000000002
:10014000000000000000000000000000B3020008F2
:10015000B3020008B3020008B3020008B3020008AB
:10016000B3020008B3020008000000000000000015
:10017000000000000000000000000000000000007F
:1001800000000000B30200080000000000000000B2
:10019000B302000800F002F800F054F814A696E844
:1001A000000CB244B344DA4501D100F04BF8BAE890
:1001B0000F000FA696E83000A5EB040504EB060738
:1001C000AAEB0704A7F101074FEA15154FEA34140B
:1001D000A4F10104AC4201D300F034F813F0010F94
:1001E00018BFFB1A43F0010300F001F8DBE71847E2
:1001F0003019000050190000103A24BF78C878C1A7
:10020000FAD8520724BF30C830C144BF04680C601C
:1002100070470000704700000023002400250026DE
:10022000103A28BF78C1FBD8520728BF30C148BF59
:100230000B6070471FB501F05EFC00F0DAF81FBDDF
:1002400010B510BD00F0FEF91146FFF7F3FF01F005
:1002500003FA00F01CFA03B4FFF7F2FF03BC00F04E
:1002600023FA00000B49D1F800C04A685CF8043B4F
:100270001068184442F8040B8C4528BFA1F1DC0C2F
:100280008A4228BFA1F1DC02C1F800C04A6020F018
:1002900000407047EC0000200948804709480047AB
:1002A000FEE7FEE7FEE7FEE7FEE7FEE7FEE7FEE726
:1002B000FEE7FEE704480549054A064B7047000083
:1002C000511300089501000828060020280C002082
:1002D000280800202808002053EA020C00F069805A
:1002E0002DE9F04B4FF00006002B1FBFB3FA83F54A
:1002F00003FA05F424FA05F65E4012BF1643B2FA7B
:1003000082F502FA05F4C5F120051EBF22FA05FCAC
:1003100044EA0C04203556EA044C4FEA144418BF52
:10032000641C4FF000084FF00009904271EB030C81
:1003300039D3002919BFB1FA81F701FA07F6B0FAEB
:1003400080F700FA07F6C7F120071EBF20FA07FC66
:1003500046EA0C062037B6FBF4FCA7EB0507103F76
:1003600007F01F0BCBF120062CFA06F60CFA0BFB5C
:1003700044BFB3460026202FA4BF5E464FF0000BBB
:100380005BEA060C08BF4FF0010B19EB0B0948EBB9
:100390000608ABFB027C06FB02CC0BFB03CCC01BAC
:1003A00071EB0C01C1E70B46024641464846BDE8E9
:1003B000F08B13B5084318BF4FF0FF300146AFF381
:1003C0000080BDE81C4070470B4910B5A1F17C02CC
:1003D0000A4CC2E93712372106E000EB104342F81D
:1003E0002130074B00FB03400B1EA1F10101F4DC9F
:1003F00010BD0120E8E700008C000020E119D6665E
:10040000CD0D0100431A28BF9A4240F26780104484
:100410001144032A40F2268010F0030F1EBF11F88A
:10042000013D521E00F8013D10F0030F7FF4F6AFBE
:1004300011F0030300F0AA80083AC0F00B8051F8D5
:10044000043D083A51F804CD40F8043D40F804CD8D
:10045000FFF7F3BF121D5CBF51F8043D40F8043DA7
:10046000AFF30080D20724BF11F8013D11F801CD90
:1004700048BF11F8012C24BF00F8013D00F801CD60
:1004800048BF00F8012C70474FF0000200B513463A
:1004900094469646203922BFA0E80C50A0E80C50A4
:1004A000B1F12001BFF4F7AF090728BFA0E80C5055
:1004B00048BF0CC05DF804EB890028BF40F8042B4E
:1004C00008BF704748BF20F8022B11F0804F18BFBB
:1004D00000F8012B7047704770477047032A40F2BD
:1004E000308010F0030C00F0158011F8013BBCF1D6
:1004F000020F624498BF11F801CB00F8013B38BFEE
:1005000011F8013BA2F1040298BF00F801CB38BFFB
:1005100000F8013B11F0030300F06280083AC0F0DC
:10052000088051F8043B083A51F804CBA0E80810C1
:10053000F5E7121D5CBF51F8043B40F8043BAFF3F4
:100540000080D20724BF11F8013B11F801CB48BF4E
:1005500011F8012B24BF00F8013B00F801CB48BF84
:1005600000F8012B7047431A28BF9A4240F23880A6
:100570001044114410F0030F1EBF11F8013D521E2C
:1005800000F8013D10F0030F7FF4F6AF103AC0F011
:100590000A8010B531E9185020E91850103ABFF41C
:1005A000F9AFBDE81040530724BF31E9081020E936
:1005B000081044BF51F8043D40F8043D12F0030F09
:1005C00008BF7047D20728BF31F8023D48BF11F875
:1005D000012C28BF20F8023D48BF00F8012C7047CD
:1005E00010B5203AC0F00B80B1E81850A0E81850C0
:1005F000B1E81850A0E81850203ABFF4F5AF5FEA10
:10060000027C24BFB1E81850A0E8185044BF18C9B4
:1006100018C0BDE810405FEA827C24BF51F8043B5B
:1006200040F8043B08BF7047D20728BF31F8023BAF
:1006300048BF11F8012B28BF20F8023B48BF00F843
:10064000012B7047754600F02BF8AE460500694651
:10065000534620F00700854618B020B5FFF72AFE64
:10066000BDE820404FF000064FF000074FF00008B3
:100670004FF0000BAC46ACE8C009ACE8C009ACE8F0
:10068000C009ACE8C00921F007018D46704710B5DC
:100690000446AFF300802046BDE81040FFF7DBBD05
:1006A00000487047F400002001491820ABBEFEE767
:1006B0002600020070470000FEE7000070470000BF
:1006C000012000F05FB80000082000F05BB80000D7
:1006D00080B5402000F056F84FF40070BDE880402F
:1006E00000F050B8B0B5044600F02EF9054640F2CF
:1006F0000400C2F200000078611C18BF044400BF6F
:1007000000F022F9401BA042FAD3B0BD10B5044658
:1007100000F01AF940F25411C2F200014A68821A3C
:10072000332A2DD3402C17D0082C0BD0012C19D1F3
:1007300040F20002C2F200021278FF2A20D000220A
:10074000012317E040F20002C2F200021278012AEF
:1007500016D00022FF230DE00A78012A10D0FF22D4
:1007600007E000BFB4F5007F0AD10A78FF2A07D05E
:100770000122002340F20004C2F2000423700A7038
:10078000486010BD43F61441C4F201010A680242F8
:1007900014BF08607047FFF7B9BF00002DE9F04FA4
:1007A00083B000F1200200F13E4741F200050092C3
:1007B00007F1FF77C4F2020507224FEAB726A842E5
:1007C00008BF042200254FF000084FF00009042E56
:1007D00038BF4FEAB72201920AE000BF09F10109D0
:1007E00008F10208B9F1100F05F1040500F0A2802C
:1007F0000F68012202FA09FE17EA0E0AEED0D1F8BC
:1008000004C003220CF003077E1E02FA08F4012E36
:100810006FEA040B12D88468CE6804EA0B0406FA67
:1008200008F634438460446824EA0E06CCF30014CE
:1008300004FA09F42643466004E000BF032F01D107
:1008400003271EE0C6688C6806EA0B0604FA08F463
:100850002643022FC66014D16FF00302009E02EA05
:10086000590756F807C005F01C040F220B69A24077
:100870002CEA0202A3401A43F251D1F804C00CF052
:100880000307026807FA08F302EA0B021A431CF492
:10089000403F0260A2D0002243F644030292C4F219
:1008A00002031A6843F6004442F480421A601A6850
:1008B000C4F2010402F480420292029A29F0030277
:1008C0004FF6084C2244CFF6FF7C52F80C3005F06E
:1008D0000C070F26BE40B343019E06FA07F73B43C1
:1008E00042F80C30A2684B6842EA0A0743F60C4C07
:1008F000DE0258BF22EA0A07A760C4F2010CDCF846
:1009000000209E0242EA0A0758BF22EA0A07CCF8F2
:10091000007062689E0342EA0A0758BF22EA0A078B
:1009200067602268DB0342EA0A0758BF22EA0A0727
:10093000276053E703B0BDE8F08F0000002A08BF2E
:10094000090481617047000040F22460C2F2000097
:100950000068704740F2040040F22461C2F20000D7
:10096000C2F2000100780A68104408607047000075
:1009700080B543F60040C4F20200016841F4007102
:100980000160016841F480610160016841F4807197
:100990000160032000F086F8002000F005F800F068
:1009A00027F8002080BD000070B540F20406C2F2B6
:1009B000000640F20C013278C2F200014FF47A7363
:1009C0000968B3FBF2F20446B1FBF2F1084600F00D
:1009D00039FB0F2C4FF0010508D838B94FF0FF3024
:1009E00021460022002500F031F87460284670BDD1
:1009F00082B0002043F640010190C4F202014A682F
:100A000042F480424A604A6802F480420192019AAC
:100A10000090086840F080500860086800F080503E
:100A20000090009802B07047002848BF704700F05F
:100A30001F01012202FA01F11C2202EAD0004EF24B
:100A40000012CEF2000281507047000010B54EF641
:100A50000C5CCEF2000CDCF80030C3F3022E8EF0FA
:100A60000704042C28BF0424BEF103034FF0FF3E0B
:100A70000EFA04F438BF0023A14399400EFA03F3A1
:100A80009A43114300F00F0200F160430901043A58
:100A900003F564436244002848BF02F10C03197057
:100AA00010BD00004EF60C51CEF200010A684FF660
:100AB000FF031A4060F30A2242F0806040F0FD70AC
:100AC00008607047002804BF012070472DE9F041FD
:100AD00043F60808C4F202080446D8F8F8030D46A5
:100AE00000F00700814207D988F8F853D8F8F803D6
:100AF00000F00700A84277D12068810717D5410789
:100B000005D5D8F8001041F4E051C8F800100107ED
:100B100005D5D8F8001041F46041C8F80010D8F8A5
:100B20000010A26821F0F0011143C8F80010C007BE
:100B300040D1D8F8F80300F00700854207D288F8C2
:100B4000F853D8F8F80300F00700A8424CD1206809
:100B5000410707D5D8F80010E26821F4E0511143AD
:100B6000C8F80010000708D5D8F80000216920F463
:100B7000604040EAC100C8F8000000F055F8D8F81D
:100B8000001041F61032C1F30311C0F60002515CAF
:100B900040F20C0220FA01F140F20800C2F200001B
:100BA0000068C2F200021160FFF7FEFE0020BDE8FF
:100BB000F08100BF6068811E022907D258F8081C26
:100BC00089015CBF0120BDE8F08111E0012807D157
:100BD00058F8081C89035CBF0120BDE8F08107E0DC
:100BE00058F8081C890703D40120BDE8F08100BF34
:100BF000D8F8001021F003010843C8F80000FFF7FF
:100C0000A3FE064641F28837D8F80000616800F07C
:100C10000C00B0EB810F8CD0FFF796FE801BB84222
:100C2000F2D90320BDE8F08110B543F60404C4F204
:100C300002046168C1F3810142F20040C0F2F40095
:100C4000DFE801F002040A0210BD00BF41F20020FB
:100C5000C0F27A0010BD00BF216801F03F02216898
:100C600023684902C3F3881106D4A1FB00010023C5
:100C7000FFF732FB07E000BF41F20020C0F27A002C
:100C80004843B0FBF2F021680222C1F3014102EBBC
:100C90004101B0FBF1F010BD002804BF01207047F6
:100CA0002DE9F04182B00446007843F60006C00703
:100CB000C4F202060CD0B06800F00C00042840F02A
:100CC00081803068800303D56068002800F0688167
:100CD000207880071BD5B06810F00C0F09D0B068E1
:100CE00000F00C00082840F087807068400200F196
:100CF00083803068800703D5E068012840F0508188
:100D00003068216920F0F80040EAC10030602078A6
:100D1000000713D4207840072AD4A569002D00F0DD
:100D20003A81B06800F00C00082840F0A580012D41
:100D300040F00E81012002B0BDE8F081606900281A
:100D400000F082800020C4F247200121C0F8801EFC
:100D5000FFF7FAFD054600BF706F8007DAD4FFF792
:100D6000F3FD401B0228F7D9032002B0BDE8F08153
:100D7000306C5FEAC0080AD400200190306C40F06B
:100D800080503064306C00F080500190019847F240
:100D90000007C4F200073868C00547D4386840F43B
:100DA00080703860FFF7D0FD054600BF3868C00589
:100DB0003CD4FFF7C9FD401B0228F7D9032002B03D
:100DC000BDE8F081B06800F00C00082803D170681D
:100DD00040023FF576AF61683068B1F5803F07D0DB
:100DE000B1F5A02F40F09A8040F480203060306848
:100DF00040F4803030609AE0E068002840F2000063
:100E0000C4F247205CD001210160FFF79DFD05463B
:100E1000306880073FF574AFFFF796FD401B02284E
:100E2000F6D9032002B0BDE8F08100BFA168306FA1
:100E3000012905D0052955D140F004003067306FF5
:100E400040F00100306756E00020C4F24720002146
:100E5000C0F8801EFFF778FD054600BF706F800761
:100E60007FF558AFFFF770FD401B0228F6D903202D
:100E700002B0BDE8F08100BF0027C4F24727002080
:100E80003866FFF761FD022D05460DD130688001FF
:100E900040F18A80FFF758FD401B02284FF0030005
:100EA000F4D902B0BDE8F0813068800173D5FFF756
:100EB0004BFD401B02284FF00300F5D9F1E700BFBE
:100EC00000210160FFF740FD054600BF3068800744
:100ED0007FF51DAFFFF738FD401B02284FF00300E0
:100EE000F4D9DEE720F001003067306F002920F0F0
:100EF000040030677AD0FFF727FD054641F28837B6
:100F0000306F800700F18480FFF71EFD401BB84260
:100F1000F6D9032002B0BDE8F08100BF20F4803094
:100F200030603068002920F4802030607AD0FFF7EC
:100F30000BFD0546306880033FF5CAAEFFF704FDA0
:100F4000401B6428F6D9032002B0BDE8F08100BF41
:100F50007068E16900F480028A4221D1216A00F0C0
:100F60003F028A421CD147F6C071626A0140B1EB70
:100F7000821F15D1A16A4FF6FF73C903994300F48C
:100F80004032A1F580318A420AD1E16A00F07060F6
:100F9000B0EB016F04D1002002B0BDE8F08100BFCA
:100FA000012002B0BDE8F08104F11C052FCD0843FB
:100FB00040EA8210D9034FF6FF729143A1F58031C8
:100FC00040EA05600843706001203866FFF7BCFC0A
:100FD000044600BF30688001DDD4FFF7B5FC001B7C
:100FE00002284FF00300F5D95BE700BFFFF7ACFC28
:100FF000054641F2883700BF306F800708D5FFF7FC
:10100000A3FC401BB8424FF00300F5D949E700BFED
:10101000B8F1000F3FF581AE306C20F080503064A5
:101020007BE600BFFFF790FC054600BF30688003F9
:101030007FF54EAEFFF788FC401B64284FF003009D
:10104000F4D92EE7411E0020B0EB116F1CBF012028
:1010500070474EF21002CEF2000251604EF623515C
:10106000CEF20001F0230B700721906011607047F1
:10107000FEE700002DE9F04F83B040F6140940F27E
:1010800000458246C4F20209C4F202054FF0000B8B
:101090004FF0000805E000BF08F10108B8F1080FA3
:1010A0006CD048F0B000C0B200F096F8102000F00C
:1010B00093F80020002600F08FF84FEAC81402E0F1
:1010C0000136802EE8D044EA06001AF8007028465F
:1010D00001210122FFF732FC284602210022FFF7FE
:1010E0002DFCD9F80000042100F47F403844C9F8F1
:1010F000000028460122FFF721FCCDF808B0029835
:10110000C72817DC0298013002900298C72811DC2A
:101110000298013002900298C7280BDC0298013037
:1011200002900298C72805DC0298013002900298CC
:10113000C828E7DB284604210022FFF7FFFBCDF893
:1011400004B00198C728BBDC0198013001900198D8
:10115000C728B5DC0198013001900198C728AFDCA1
:101160000198013001900198C728A9DC019801304D
:1011700001900198C828E7DBA2E700BF03B0BDE8F3
:10118000F08F000080B53220FFF7ACFAE22000F0CB
:1011900023F80520FFF7A6FAA22000F01DF8A020F2
:1011A00000F01AF8C82000F017F82F2000F014F80B
:1011B0000520FFF797FA262000F00EF8812000F0B6
:1011C0000BF81F2000F008F8AF2000F005F84020D1
:1011D000BDE88040AFF3008070B582B040F20044BB
:1011E000C4F2020405462046012100220026FFF732
:1011F000A5FB204602210022FFF7A0FB40F61400C9
:10120000C4F202000168012201F47F412944016017
:1012100020460421FFF792FB01960198C72817DCAE
:101220000198013001900198C72811DC0198013024
:1012300001900198C7280BDC0198013001900198BA
:10124000C72805DC0198013001900198C828E7DB28
:10125000204604210022FFF771FB00960098C72862
:1012600018DC00BF0098013000900098C72811DCFE
:101270000098013000900098C7280BDC00980130DE
:1012800000900098C72805DC009801300090009875
:10129000C828E7DB02B070BDFEE70000FEE70000F3
:1012A0007047000070470000FFF754BB70B592B064
:1012B00006AC20463021FFF7E7F8002543F6400052
:1012C0000595CDE90355CDE901550095C4F202001D
:1012D0000168022641F080510160006800F08050F2
:1012E0000090009847F200000095C4F200000168E9
:1012F00066F38F310160006800F440400090009870
:101300000120099010200A900E904FF4A8700F90C1
:10131000042010900720119020460696CDE90C6518
:10132000FFF7BAFC10B172B6FEE700BF0F20CDE99F
:1013300001064FF48050CDE9040501A80221039570
:10134000FFF7C0FB10B172B6FEE700BF12B070BD70
:101350004EF68850CEF20000016841F47001016041
:1013600070470000FEE700002DE9F04740F2C05A48
:10137000C2F2000A4FF02030CAF8000020208AF89C
:10138000040040F2541943F64070C2F20009C3F65B
:101390003E5040F20008C9F808003C20C2F20008A4
:1013A00089F80C0040F20150A8F80000002089F8EC
:1013B00000000A20FFF796F9FFF7C6FAFFF704F8D6
:1013C00099F80340002C45D040F2C010C2F2000052
:1013D0004FF48061FFF758F8012C76D199F802702C
:1013E00099F9010000285DD56FE000BF99F8011060
:1013F000C0F1000C431E002603E000BF0436B042DB
:1014000041D009EB06052A7A914203D11AF8062049
:10141000BA421FD0B34236D06A7A914204D10AEB65
:1014200006025278BA4215D00CEB0602941C2AD060
:10143000AC7AA14204D10AEB0604A478BC4209D0DC
:10144000033220D0EA7A9142D8D10AEB0602D27850
:10145000BA42D3D1FEF706FFC11700EB516101F08C
:101460008001401A89F80100FEF7FCFEC11700EB6D
:10147000916121F03F01411A98F80100CFB2002894
:1014800089F80210B2D1012089F8030040F2C0109F
:10149000C2F200004FF48061FEF7F6FF99F90100F7
:1014A000002812D43F2F10D86FF0700101EA071105
:1014B00040F2C0130843C2F2000307F00701012203
:1014C0001F5C02FA01F13943195498F80100002811
:1014D00060D0042800F0030C64D20021BCF1000F9E
:1014E00058D009EB010090F90800002814D41AF82C
:1014F00001203F2A10D86FF0700303EA021340F274
:10150000C0171843C2F2000702F0070201233E5C35
:1015100003FA02F232433A54BCF1010F3AD04A1CAA
:1015200009EB020090F90800002814D41AF80220F0
:101530003F2A10D86FF0700303EA021340F2C0177D
:101540001843C2F2000702F0070201233E5C03FACF
:1015500002F232433A54BCF1020F1BD0023109EBC4
:10156000010090F90800002814D41AF801103F294E
:1015700010D86FF0700202EA011240F2C01310435B
:10158000C2F2000301F0070101221F5C02FA01F11F
:101590003943195440F2C010C2F20000BDE8F047D0
:1015A000FFF768BD40F2C01600F0FC0E00216FF09E
:1015B00070080127C2F2000603E000BF04318E4527
:1015C0008CD009EB010090F90850002D0DD41AF8C9
:1015D00001403F2C09D808EA04122A4304F007040A
:1015E000B55C07FA04F42C43B45490F909400AEBB3
:1015F0000105002C0CD46A783F2A09D808EA0213A6
:10160000234302F00702F45C07FA02F22243F25489
:1016100090F90A40002C0CD4AA783F2A09D808EA8D
:101620000213234302F00702F45C07FA02F222439A
:10163000F25490F90B000028C0D4EA783F2ABDD8B4
:1016400008EA0213184302F00702335C07FA02F2B9
:101650001A433254B2E7000086B0FFF789F9FFF76A
:1016600025FE002743F630000597CDE90377CDE945
:1016700001770097C4F20200016840F2004941F08E
:10168000040101600168C4F2020901F00401009143
:1016900000990097016809F5806541F080010160BB
:1016A0000168002201F08001009100990097016813
:1016B000FF2641F001010160016801F00101009184
:1016C00000990097016841F0020101600068FF2164
:1016D00000F00200009000982846FFF72FF94846D6
:1016E000072100224FF00708FFF728F9019601AE05
:1016F000012428463146CDE902470497FFF74EF80A
:1017000040F2492001904FF48810CDE90204A9F578
:1017100080603146FFF742F848463146CDE9018402
:10172000CDE90377FFF73AF8062000210022FFF702
:101730008DF90620FFF778F9092000210022FFF734
:1017400085F90920FFF770F9172000210022FFF723
:101750007DF91720FFF768F9FFF714FDFFF704FE86
:10176000FFF7F2F8044600BFFFF7EEF8001B192858
:10177000FAD300F001F8F3E72DE9F04740F2000852
:10178000C2F2000898F8017040F2541940F2C05AB1
:10179000022FC2F20009C2F2000A0DD37D1E09F128
:1017A000090009F108012A46FEF72CFE0AF10100A2
:1017B00051462A46FEF726FE98F8000099F80810D0
:1017C00099F8002001449AF80000CBB21044FF2B96
:1017D00089F808108AF800000AD049B2B1F1FF3F39
:1017E00008DDC2B2FF2A0BD0402A0CD3002008E04B
:1017F0007F2100E0002189F80810C2B2FF2AF3D14E
:101800003F208AF8000099F80160C9B2B14275D151
:1018100099F80210C0B2884270D10020632F89F875
:1018200003009CBF781C88F80100FEF71BFDC11760
:1018300000EB516101F08001401A89F80100FEF7C8
:1018400011FDC11700EB916121F03F01411A98F899
:101850000100CDB2002889F8021063D099F8011078
:10186000C0F1000C431E002703E000BF0437B8425C
:1018700056D009EB0706347AA14203D11AF8074083
:10188000AC421FD0BB424BD0747AA14204D10AEBC8
:1018900007046478AC4215D00CEB0704A21C3FD0BF
:1018A000B27A914204D10AEB07029278AA4209D097
:1018B000E21C35D0F27A9142D8D10AEB0702D278F5
:1018C000AA42D3D1FEF7CEFCC11700EB516101F063
:1018D0008001401A89F80100FEF7C4FCC11700EB33
:1018E000916121F03F01411A98F80100CDB2002822
:1018F0004FF0000789F80210B0D114E040F2C01098
:1019000099F80340C2F200004FF48061FEF7BCFD7D
:10191000012C2BD199F8025070B2002813D525E084
:10192000074600E00027012089F8030040F2C010BC
:10193000C2F200004FF48061FEF7A6FD99F8016045
:1019400070B2002812D43F2D10D86FF0700000EA5A
:10195000051040F2C0133043C2F2000305F0070146
:1019600001221E5C02FA01F131431954002F60D0AC
:10197000042F07F0030C65D20021BCF1000F58D0F2
:1019800009EB010090F90800002814D41AF801208E
:101990003F2A10D86FF0700303EA021340F2C01719
:1019A0001843C2F2000702F0070201233E5C03FA6B
:1019B00002F232433A54BCF1010F3AD04A1C09EB0F
:1019C000020090F90800002814D41AF802203F2AD7
:1019D00010D86FF0700303EA021340F2C0171843E7
:1019E000C2F2000702F0070201233E5C03FA02F292
:1019F00032433A54BCF1020F1BD0023109EB010013
:101A000090F90800002814D41AF801103F2910D8C2
:101A10006FF0700202EA011240F2C0131043C2F2EA
:101A2000000301F0070101221F5C02FA01F13943B2
:101A3000195440F2C010C2F20000BDE8F047FFF7B1
:101A400019BB00BF40F2C01507F0FC0E00216FF07B
:101A500070080127C2F2000503E000BF04318E4583
:101A60008BD009EB010090F90860002E0DD41AF814
:101A700001403F2C09D808EA0412324304F007045D
:101A8000AE5C07FA04F43443AC5490F909400AEB15
:101A90000106002C0CD472783F2A09D808EA0213F8
:101AA000234302F00702EC5C07FA02F22243EA54F5
:101AB00090F90A40002C0CD4B2783F2A09D808EAE1
:101AC0000213234302F00702EC5C07FA02F22243FE
:101AD000EA5490F90B000028C0D4F2783F2ABDD810
:101AE00008EA0213184302F007022B5C07FA02F21D
:101AF0001A432A54B2E7F1EE100A4FF6FF71C0F212
:101B0000C03120EA010040F04070E1EE100A704759
:101B1000000000000000000001020304060708099D
:101B2000401B00080000002010000000F801000821
:101B3000501B000810000020180C000018020008BC
:101B40000105000001000000100000000024F40066
:040000050800019559
:00000001FF
